{
  "_format": "hh-sol-artifact-1",
  "contractName": "Record",
  "sourceName": "contracts/Record.sol",
  "abi": [
    {
      "inputs": [],
      "stateMutability": "nonpayable",
      "type": "constructor"
    },
    {
      "inputs": [],
      "name": "appointmentCountTotal",
      "outputs": [
        {
          "internalType": "uint256",
          "name": "",
          "type": "uint256"
        }
      ],
      "stateMutability": "view",
      "type": "function"
    },
    {
      "inputs": [
        {
          "internalType": "address",
          "name": "",
          "type": "address"
        }
      ],
      "name": "appointmentDetails",
      "outputs": [
        {
          "internalType": "address",
          "name": "doctorAddr",
          "type": "address"
        },
        {
          "internalType": "address",
          "name": "patientAddr",
          "type": "address"
        },
        {
          "internalType": "string",
          "name": "date",
          "type": "string"
        },
        {
          "internalType": "string",
          "name": "time",
          "type": "string"
        },
        {
          "internalType": "string",
          "name": "prescription",
          "type": "string"
        },
        {
          "internalType": "string",
          "name": "description",
          "type": "string"
        },
        {
          "internalType": "string",
          "name": "diagnosis",
          "type": "string"
        },
        {
          "internalType": "string",
          "name": "status",
          "type": "string"
        },
        {
          "internalType": "uint256",
          "name": "creationDate",
          "type": "uint256"
        }
      ],
      "stateMutability": "view",
      "type": "function"
    },
    {
      "inputs": [
        {
          "internalType": "uint256",
          "name": "",
          "type": "uint256"
        }
      ],
      "name": "appointments",
      "outputs": [
        {
          "internalType": "address",
          "name": "",
          "type": "address"
        }
      ],
      "stateMutability": "view",
      "type": "function"
    },
    {
      "inputs": [
        {
          "internalType": "address",
          "name": "_addr",
          "type": "address"
        },
        {
          "internalType": "string",
          "name": "_date",
          "type": "string"
        },
        {
          "internalType": "string",
          "name": "_time",
          "type": "string"
        },
        {
          "internalType": "string",
          "name": "_prescription",
          "type": "string"
        },
        {
          "internalType": "string",
          "name": "_description",
          "type": "string"
        },
        {
          "internalType": "string",
          "name": "_diagnosis",
          "type": "string"
        },
        {
          "internalType": "string",
          "name": "_status",
          "type": "string"
        }
      ],
      "name": "createAppointment",
      "outputs": [],
      "stateMutability": "nonpayable",
      "type": "function"
    },
    {
      "inputs": [],
      "name": "doctorCount",
      "outputs": [
        {
          "internalType": "uint256",
          "name": "",
          "type": "uint256"
        }
      ],
      "stateMutability": "view",
      "type": "function"
    },
    {
      "inputs": [
        {
          "internalType": "address",
          "name": "",
          "type": "address"
        }
      ],
      "name": "doctorDetails",
      "outputs": [
        {
          "internalType": "string",
          "name": "ic",
          "type": "string"
        },
        {
          "internalType": "string",
          "name": "name",
          "type": "string"
        },
        {
          "internalType": "string",
          "name": "phone",
          "type": "string"
        },
        {
          "internalType": "string",
          "name": "gender",
          "type": "string"
        },
        {
          "internalType": "string",
          "name": "dob",
          "type": "string"
        },
        {
          "internalType": "string",
          "name": "qualification",
          "type": "string"
        },
        {
          "internalType": "string",
          "name": "major",
          "type": "string"
        },
        {
          "internalType": "address",
          "name": "addr",
          "type": "address"
        },
        {
          "internalType": "uint256",
          "name": "date",
          "type": "uint256"
        }
      ],
      "stateMutability": "view",
      "type": "function"
    },
    {
      "inputs": [
        {
          "internalType": "uint256",
          "name": "",
          "type": "uint256"
        }
      ],
      "name": "doctors",
      "outputs": [
        {
          "internalType": "address",
          "name": "",
          "type": "address"
        }
      ],
      "stateMutability": "view",
      "type": "function"
    },
    {
      "inputs": [
        {
          "internalType": "string",
          "name": "_ic",
          "type": "string"
        },
        {
          "internalType": "string",
          "name": "_name",
          "type": "string"
        },
        {
          "internalType": "string",
          "name": "_phone",
          "type": "string"
        },
        {
          "internalType": "string",
          "name": "_gender",
          "type": "string"
        },
        {
          "internalType": "string",
          "name": "_dob",
          "type": "string"
        },
        {
          "internalType": "string",
          "name": "_qualification",
          "type": "string"
        },
        {
          "internalType": "string",
          "name": "_major",
          "type": "string"
        }
      ],
      "name": "editDoctor",
      "outputs": [],
      "stateMutability": "nonpayable",
      "type": "function"
    },
    {
      "inputs": [
        {
          "internalType": "string",
          "name": "_ic",
          "type": "string"
        },
        {
          "internalType": "string",
          "name": "_name",
          "type": "string"
        },
        {
          "internalType": "string",
          "name": "_phone",
          "type": "string"
        },
        {
          "internalType": "string",
          "name": "_gender",
          "type": "string"
        },
        {
          "internalType": "string",
          "name": "_dob",
          "type": "string"
        },
        {
          "internalType": "string",
          "name": "_height",
          "type": "string"
        },
        {
          "internalType": "string",
          "name": "_weight",
          "type": "string"
        },
        {
          "internalType": "string",
          "name": "_houseaddr",
          "type": "string"
        }
      ],
      "name": "editPatientDetails",
      "outputs": [],
      "stateMutability": "nonpayable",
      "type": "function"
    },
    {
      "inputs": [],
      "name": "getAllAppointments",
      "outputs": [
        {
          "internalType": "address[]",
          "name": "",
          "type": "address[]"
        }
      ],
      "stateMutability": "view",
      "type": "function"
    },
    {
      "inputs": [],
      "name": "getAllDoctors",
      "outputs": [
        {
          "internalType": "address[]",
          "name": "",
          "type": "address[]"
        }
      ],
      "stateMutability": "view",
      "type": "function"
    },
    {
      "inputs": [],
      "name": "getAllPatients",
      "outputs": [
        {
          "internalType": "address[]",
          "name": "",
          "type": "address[]"
        }
      ],
      "stateMutability": "view",
      "type": "function"
    },
    {
      "inputs": [],
      "name": "getAppointmentCountTotal",
      "outputs": [
        {
          "internalType": "uint256",
          "name": "",
          "type": "uint256"
        }
      ],
      "stateMutability": "view",
      "type": "function"
    },
    {
      "inputs": [
        {
          "internalType": "address",
          "name": "_patientAddr",
          "type": "address"
        }
      ],
      "name": "getAppointmentDetails",
      "outputs": [
        {
          "internalType": "string",
          "name": "",
          "type": "string"
        },
        {
          "internalType": "string",
          "name": "",
          "type": "string"
        },
        {
          "internalType": "string",
          "name": "",
          "type": "string"
        },
        {
          "internalType": "string",
          "name": "",
          "type": "string"
        },
        {
          "internalType": "string",
          "name": "",
          "type": "string"
        },
        {
          "internalType": "string",
          "name": "",
          "type": "string"
        },
        {
          "internalType": "string",
          "name": "",
          "type": "string"
        },
        {
          "internalType": "uint256",
          "name": "",
          "type": "uint256"
        }
      ],
      "stateMutability": "view",
      "type": "function"
    },
    {
      "inputs": [],
      "name": "getDoctorCount",
      "outputs": [
        {
          "internalType": "uint256",
          "name": "",
          "type": "uint256"
        }
      ],
      "stateMutability": "view",
      "type": "function"
    },
    {
      "inputs": [
        {
          "internalType": "address",
          "name": "_doctorAddr",
          "type": "address"
        }
      ],
      "name": "getDoctorDetails",
      "outputs": [
        {
          "internalType": "string",
          "name": "",
          "type": "string"
        },
        {
          "internalType": "string",
          "name": "",
          "type": "string"
        },
        {
          "internalType": "string",
          "name": "",
          "type": "string"
        },
        {
          "internalType": "string",
          "name": "",
          "type": "string"
        },
        {
          "internalType": "string",
          "name": "",
          "type": "string"
        },
        {
          "internalType": "string",
          "name": "",
          "type": "string"
        },
        {
          "internalType": "uint256",
          "name": "",
          "type": "uint256"
        }
      ],
      "stateMutability": "view",
      "type": "function"
    },
    {
      "inputs": [],
      "name": "getPatientCount",
      "outputs": [
        {
          "internalType": "uint256",
          "name": "",
          "type": "uint256"
        }
      ],
      "stateMutability": "view",
      "type": "function"
    },
    {
      "inputs": [
        {
          "internalType": "address",
          "name": "_patientAddr",
          "type": "address"
        }
      ],
      "name": "getPatientDetails",
      "outputs": [
        {
          "internalType": "string",
          "name": "",
          "type": "string"
        },
        {
          "internalType": "string",
          "name": "",
          "type": "string"
        },
        {
          "internalType": "string",
          "name": "",
          "type": "string"
        },
        {
          "internalType": "string",
          "name": "",
          "type": "string"
        },
        {
          "internalType": "string",
          "name": "",
          "type": "string"
        },
        {
          "internalType": "string",
          "name": "",
          "type": "string"
        },
        {
          "internalType": "string",
          "name": "",
          "type": "string"
        },
        {
          "internalType": "string",
          "name": "",
          "type": "string"
        },
        {
          "internalType": "uint256",
          "name": "",
          "type": "uint256"
        }
      ],
      "stateMutability": "view",
      "type": "function"
    },
    {
      "inputs": [
        {
          "internalType": "address",
          "name": "_patientAddr",
          "type": "address"
        }
      ],
      "name": "getPatientMedications",
      "outputs": [
        {
          "internalType": "string",
          "name": "",
          "type": "string"
        },
        {
          "internalType": "string",
          "name": "",
          "type": "string"
        },
        {
          "internalType": "string",
          "name": "",
          "type": "string"
        }
      ],
      "stateMutability": "view",
      "type": "function"
    },
    {
      "inputs": [],
      "name": "getPermissionGrantedCount",
      "outputs": [
        {
          "internalType": "uint256",
          "name": "",
          "type": "uint256"
        }
      ],
      "stateMutability": "view",
      "type": "function"
    },
    {
      "inputs": [
        {
          "internalType": "address",
          "name": "_doctorAddr",
          "type": "address"
        }
      ],
      "name": "grantPermission",
      "outputs": [],
      "stateMutability": "nonpayable",
      "type": "function"
    },
    {
      "inputs": [
        {
          "internalType": "address",
          "name": "_patientAddr",
          "type": "address"
        },
        {
          "internalType": "address",
          "name": "_doctorAddr",
          "type": "address"
        }
      ],
      "name": "hasAccess",
      "outputs": [
        {
          "internalType": "bool",
          "name": "",
          "type": "bool"
        }
      ],
      "stateMutability": "view",
      "type": "function"
    },
    {
      "inputs": [],
      "name": "owner",
      "outputs": [
        {
          "internalType": "address",
          "name": "",
          "type": "address"
        }
      ],
      "stateMutability": "view",
      "type": "function"
    },
    {
      "inputs": [],
      "name": "patientCount",
      "outputs": [
        {
          "internalType": "uint256",
          "name": "",
          "type": "uint256"
        }
      ],
      "stateMutability": "view",
      "type": "function"
    },
    {
      "inputs": [
        {
          "internalType": "address",
          "name": "",
          "type": "address"
        }
      ],
      "name": "patientDetails",
      "outputs": [
        {
          "internalType": "string",
          "name": "ic",
          "type": "string"
        },
        {
          "internalType": "string",
          "name": "name",
          "type": "string"
        },
        {
          "internalType": "string",
          "name": "phone",
          "type": "string"
        },
        {
          "internalType": "string",
          "name": "gender",
          "type": "string"
        },
        {
          "internalType": "string",
          "name": "dob",
          "type": "string"
        },
        {
          "internalType": "string",
          "name": "height",
          "type": "string"
        },
        {
          "internalType": "string",
          "name": "weight",
          "type": "string"
        },
        {
          "internalType": "string",
          "name": "houseaddr",
          "type": "string"
        },
        {
          "internalType": "address",
          "name": "addr",
          "type": "address"
        },
        {
          "internalType": "uint256",
          "name": "date",
          "type": "uint256"
        }
      ],
      "stateMutability": "view",
      "type": "function"
    },
    {
      "inputs": [
        {
          "internalType": "address",
          "name": "",
          "type": "address"
        }
      ],
      "name": "patientMedications",
      "outputs": [
        {
          "internalType": "string",
          "name": "bloodgroup",
          "type": "string"
        },
        {
          "internalType": "string",
          "name": "allergies",
          "type": "string"
        },
        {
          "internalType": "string",
          "name": "medication",
          "type": "string"
        }
      ],
      "stateMutability": "view",
      "type": "function"
    },
    {
      "inputs": [
        {
          "internalType": "uint256",
          "name": "",
          "type": "uint256"
        }
      ],
      "name": "patients",
      "outputs": [
        {
          "internalType": "address",
          "name": "",
          "type": "address"
        }
      ],
      "stateMutability": "view",
      "type": "function"
    },
    {
      "inputs": [],
      "name": "permissionGrantedCount",
      "outputs": [
        {
          "internalType": "uint256",
          "name": "",
          "type": "uint256"
        }
      ],
      "stateMutability": "view",
      "type": "function"
    },
    {
      "inputs": [
        {
          "internalType": "address",
          "name": "",
          "type": "address"
        },
        {
          "internalType": "address",
          "name": "",
          "type": "address"
        }
      ],
      "name": "permissions",
      "outputs": [
        {
          "internalType": "bool",
          "name": "granted",
          "type": "bool"
        }
      ],
      "stateMutability": "view",
      "type": "function"
    },
    {
      "inputs": [
        {
          "internalType": "address",
          "name": "_doctorAddr",
          "type": "address"
        }
      ],
      "name": "revokePermission",
      "outputs": [],
      "stateMutability": "nonpayable",
      "type": "function"
    },
    {
      "inputs": [
        {
          "internalType": "string",
          "name": "_ic",
          "type": "string"
        },
        {
          "internalType": "string",
          "name": "_name",
          "type": "string"
        },
        {
          "internalType": "string",
          "name": "_phone",
          "type": "string"
        },
        {
          "internalType": "string",
          "name": "_gender",
          "type": "string"
        },
        {
          "internalType": "string",
          "name": "_dob",
          "type": "string"
        },
        {
          "internalType": "string",
          "name": "_qualification",
          "type": "string"
        },
        {
          "internalType": "string",
          "name": "_major",
          "type": "string"
        }
      ],
      "name": "setDoctorDetails",
      "outputs": [],
      "stateMutability": "nonpayable",
      "type": "function"
    },
    {
      "inputs": [
        {
          "internalType": "string",
          "name": "_bloodgroup",
          "type": "string"
        },
        {
          "internalType": "string",
          "name": "_allergies",
          "type": "string"
        },
        {
          "internalType": "string",
          "name": "_medication",
          "type": "string"
        }
      ],
      "name": "setMedications",
      "outputs": [],
      "stateMutability": "nonpayable",
      "type": "function"
    },
    {
      "inputs": [
        {
          "internalType": "string",
          "name": "_ic",
          "type": "string"
        },
        {
          "internalType": "string",
          "name": "_name",
          "type": "string"
        },
        {
          "internalType": "string",
          "name": "_phone",
          "type": "string"
        },
        {
          "internalType": "string",
          "name": "_gender",
          "type": "string"
        },
        {
          "internalType": "string",
          "name": "_dob",
          "type": "string"
        },
        {
          "internalType": "string",
          "name": "_height",
          "type": "string"
        },
        {
          "internalType": "string",
          "name": "_weight",
          "type": "string"
        },
        {
          "internalType": "string",
          "name": "_houseaddr",
          "type": "string"
        }
      ],
      "name": "setPatientDetails",
      "outputs": [],
      "stateMutability": "nonpayable",
      "type": "function"
    },
    {
      "inputs": [
        {
          "internalType": "address",
          "name": "_addr",
          "type": "address"
        },
        {
          "internalType": "string",
          "name": "_date",
          "type": "string"
        },
        {
          "internalType": "string",
          "name": "_time",
          "type": "string"
        },
        {
          "internalType": "string",
          "name": "_prescription",
          "type": "string"
        },
        {
          "internalType": "string",
          "name": "_description",
          "type": "string"
        },
        {
          "internalType": "string",
          "name": "_diagnosis",
          "type": "string"
        },
        {
          "internalType": "string",
          "name": "_status",
          "type": "string"
        }
      ],
      "name": "updateAppointment",
      "outputs": [],
      "stateMutability": "nonpayable",
      "type": "function"
    }
  ],
  "bytecode": "0x608060405234801561001057600080fd5b50336000806101000a81548173ffffffffffffffffffffffffffffffffffffffff021916908373ffffffffffffffffffffffffffffffffffffffff16021790555061516e806100606000396000f3fe608060405234801561001057600080fd5b50600436106102065760003560e01c80638654c1431161011a578063a5aca8bc116100ad578063d2bfa43c1161007c578063d2bfa43c14610651578063e1de2d5914610683578063ef060e9b1461069f578063efe2ccc1146106bb578063f0d95090146106f357610206565b8063a5aca8bc146105c3578063bab90dbd146105df578063c0cb24ba14610615578063c190665b1461063357610206565b806396f6d769116100e957806396f6d7691461054f5780639df913921461056b578063a0303c4114610589578063a3bf5b9a146105a757610206565b80638654c143146104b15780638da5cb5b146104e357806393119a831461050157806394fc1f7a1461053157610206565b8063261b73f31161019d5780636efb1b841161016c5780636efb1b84146103ef57806378522bc41461041f57806379111c1c1461043d5780637933570c1461045b5780637970d1411461047957610206565b8063261b73f3146103485780632d8e3278146103645780632ed226ad1461038057806367cdccba146103b857610206565b806318a231a9116101d957806318a231a9146102c05780631b1adfbc146102de5780631f9838b5146102fa57806324c24b2b1461032a57610206565b806307c981561461020b57806310c5f0251461022757806312dc9013146102605780631709ef0714610290575b600080fd5b61022560048036038101906102209190613f56565b610711565b005b610241600480360381019061023c91906140a0565b61097f565b6040516102579a99989796959493929190614174565b60405180910390f35b61027a60048036038101906102759190614274565b610e33565b60405161028791906142a1565b60405180910390f35b6102aa60048036038101906102a591906142bc565b610e72565b6040516102b79190614317565b60405180910390f35b6102c8610f09565b6040516102d591906143f0565b60405180910390f35b6102f860048036038101906102f39190614412565b610f97565b005b610314600480360381019061030f91906142bc565b6111d8565b6040516103219190614317565b60405180910390f35b610332611210565b60405161033f9190614578565b60405180910390f35b610362600480360381019061035d9190613f56565b61121a565b005b61037e600480360381019061037991906140a0565b6113af565b005b61039a600480360381019061039591906140a0565b61156c565b6040516103af99989796959493929190614593565b60405180910390f35b6103d260048036038101906103cd91906140a0565b611992565b6040516103e6989796959493929190614651565b60405180910390f35b61040960048036038101906104049190614274565b611fa6565b60405161041691906142a1565b60405180910390f35b610427611fe5565b6040516104349190614578565b60405180910390f35b610445611feb565b6040516104529190614578565b60405180910390f35b610463611ff5565b60405161047091906143f0565b60405180910390f35b610493600480360381019061048e91906140a0565b612083565b6040516104a899989796959493929190614700565b60405180910390f35b6104cb60048036038101906104c691906140a0565b612441565b6040516104da939291906147b7565b60405180910390f35b6104eb612667565b6040516104f891906142a1565b60405180910390f35b61051b60048036038101906105169190614274565b61268b565b60405161052891906142a1565b60405180910390f35b6105396126ca565b6040516105469190614578565b60405180910390f35b61056960048036038101906105649190614803565b6126d4565b005b6105736129f6565b6040516105809190614578565b60405180910390f35b6105916129fc565b60405161059e9190614578565b60405180910390f35b6105c160048036038101906105bc91906140a0565b612a02565b005b6105dd60048036038101906105d89190614412565b612bbf565b005b6105f960048036038101906105f491906140a0565b612d23565b60405161060c9796959493929190614999565b60405180910390f35b61061d61329d565b60405161062a9190614578565b60405180910390f35b61063b6132a3565b6040516106489190614578565b60405180910390f35b61066b600480360381019061066691906140a0565b6132ad565b60405161067a939291906147b7565b60405180910390f35b61069d60048036038101906106989190614803565b61346f565b005b6106b960048036038101906106b49190614a32565b6135e6565b005b6106d560048036038101906106d091906140a0565b6136f1565b6040516106ea99989796959493929190614ad9565b60405180910390f35b6106fb613d10565b60405161070891906143f0565b60405180910390f35b600a60003373ffffffffffffffffffffffffffffffffffffffff1673ffffffffffffffffffffffffffffffffffffffff16815260200190815260200160002060009054906101000a900460ff1661076757600080fd5b6000600760003373ffffffffffffffffffffffffffffffffffffffff1673ffffffffffffffffffffffffffffffffffffffff1681526020019081526020016000209050338160000160006101000a81548173ffffffffffffffffffffffffffffffffffffffff021916908373ffffffffffffffffffffffffffffffffffffffff160217905550878160010160006101000a81548173ffffffffffffffffffffffffffffffffffffffff021916908373ffffffffffffffffffffffffffffffffffffffff160217905550868160020190816108419190614daa565b50858160030190816108539190614daa565b50848160040190816108659190614daa565b50838160050190816108779190614daa565b50828160060190816108899190614daa565b508181600701908161089b9190614daa565b504281600801819055506003889080600181540180825580915050600190039060005260206000200160009091909190916101000a81548173ffffffffffffffffffffffffffffffffffffffff021916908373ffffffffffffffffffffffffffffffffffffffff160217905550600e600081548092919061091b90614eab565b9190505550600b60008973ffffffffffffffffffffffffffffffffffffffff1673ffffffffffffffffffffffffffffffffffffffff168152602001908152602001600020600081548092919061097090614eab565b91905055505050505050505050565b60046020528060005260406000206000915090508060000180546109a290614bcd565b80601f01602080910402602001604051908101604052809291908181526020018280546109ce90614bcd565b8015610a1b5780601f106109f057610100808354040283529160200191610a1b565b820191906000526020600020905b8154815290600101906020018083116109fe57829003601f168201915b505050505090806001018054610a3090614bcd565b80601f0160208091040260200160405190810160405280929190818152602001828054610a5c90614bcd565b8015610aa95780601f10610a7e57610100808354040283529160200191610aa9565b820191906000526020600020905b815481529060010190602001808311610a8c57829003601f168201915b505050505090806002018054610abe90614bcd565b80601f0160208091040260200160405190810160405280929190818152602001828054610aea90614bcd565b8015610b375780601f10610b0c57610100808354040283529160200191610b37565b820191906000526020600020905b815481529060010190602001808311610b1a57829003601f168201915b505050505090806003018054610b4c90614bcd565b80601f0160208091040260200160405190810160405280929190818152602001828054610b7890614bcd565b8015610bc55780601f10610b9a57610100808354040283529160200191610bc5565b820191906000526020600020905b815481529060010190602001808311610ba857829003601f168201915b505050505090806004018054610bda90614bcd565b80601f0160208091040260200160405190810160405280929190818152602001828054610c0690614bcd565b8015610c535780601f10610c2857610100808354040283529160200191610c53565b820191906000526020600020905b815481529060010190602001808311610c3657829003601f168201915b505050505090806005018054610c6890614bcd565b80601f0160208091040260200160405190810160405280929190818152602001828054610c9490614bcd565b8015610ce15780601f10610cb657610100808354040283529160200191610ce1565b820191906000526020600020905b815481529060010190602001808311610cc457829003601f168201915b505050505090806006018054610cf690614bcd565b80601f0160208091040260200160405190810160405280929190818152602001828054610d2290614bcd565b8015610d6f5780601f10610d4457610100808354040283529160200191610d6f565b820191906000526020600020905b815481529060010190602001808311610d5257829003601f168201915b505050505090806007018054610d8490614bcd565b80601f0160208091040260200160405190810160405280929190818152602001828054610db090614bcd565b8015610dfd5780601f10610dd257610100808354040283529160200191610dfd565b820191906000526020600020905b815481529060010190602001808311610de057829003601f168201915b5050505050908060080160009054906101000a900473ffffffffffffffffffffffffffffffffffffffff1690806009015490508a565b60038181548110610e4357600080fd5b906000526020600020016000915054906101000a900473ffffffffffffffffffffffffffffffffffffffff1681565b6000600860008473ffffffffffffffffffffffffffffffffffffffff1673ffffffffffffffffffffffffffffffffffffffff16815260200190815260200160002060008373ffffffffffffffffffffffffffffffffffffffff1673ffffffffffffffffffffffffffffffffffffffff16815260200190815260200160002060000160009054906101000a900460ff16905092915050565b60606001805480602002602001604051908101604052809291908181526020018280548015610f8d57602002820191906000526020600020905b8160009054906101000a900473ffffffffffffffffffffffffffffffffffffffff1673ffffffffffffffffffffffffffffffffffffffff1681526020019060010190808311610f43575b5050505050905090565b600a60003373ffffffffffffffffffffffffffffffffffffffff1673ffffffffffffffffffffffffffffffffffffffff16815260200190815260200160002060009054906101000a900460ff1615610fee57600080fd5b6000600660003373ffffffffffffffffffffffffffffffffffffffff1673ffffffffffffffffffffffffffffffffffffffff1681526020019081526020016000209050878160000190816110429190614daa565b50868160010190816110549190614daa565b50858160020190816110669190614daa565b50848160030190816110789190614daa565b508381600401908161108a9190614daa565b508281600501908161109c9190614daa565b50818160060190816110ae9190614daa565b50338160070160006101000a81548173ffffffffffffffffffffffffffffffffffffffff021916908373ffffffffffffffffffffffffffffffffffffffff1602179055504281600801819055506002339080600181540180825580915050600190039060005260206000200160009091909190916101000a81548173ffffffffffffffffffffffffffffffffffffffff021916908373ffffffffffffffffffffffffffffffffffffffff1602179055506001600a60003373ffffffffffffffffffffffffffffffffffffffff1673ffffffffffffffffffffffffffffffffffffffff16815260200190815260200160002060006101000a81548160ff021916908315150217905550600d60008154809291906111c990614eab565b91905055505050505050505050565b6008602052816000526040600020602052806000526040600020600091509150508060000160009054906101000a900460ff16905081565b6000600f54905090565b600a60003373ffffffffffffffffffffffffffffffffffffffff1673ffffffffffffffffffffffffffffffffffffffff16815260200190815260200160002060009054906101000a900460ff1661127057600080fd5b6000600760008973ffffffffffffffffffffffffffffffffffffffff1673ffffffffffffffffffffffffffffffffffffffff1681526020019081526020016000209050338160000160006101000a81548173ffffffffffffffffffffffffffffffffffffffff021916908373ffffffffffffffffffffffffffffffffffffffff160217905550878160010160006101000a81548173ffffffffffffffffffffffffffffffffffffffff021916908373ffffffffffffffffffffffffffffffffffffffff1602179055508681600201908161134a9190614daa565b508581600301908161135c9190614daa565b508281600601908161136e9190614daa565b50848160040190816113809190614daa565b50838160050190816113929190614daa565b50818160070190816113a49190614daa565b505050505050505050565b6000600460003373ffffffffffffffffffffffffffffffffffffffff1673ffffffffffffffffffffffffffffffffffffffff1681526020019081526020016000206009015403611434576040517f08c379a000000000000000000000000000000000000000000000000000000000815260040161142b90614f3f565b60405180910390fd5b6000600660008373ffffffffffffffffffffffffffffffffffffffff1673ffffffffffffffffffffffffffffffffffffffff16815260200190815260200160002060080154036114b9576040517f08c379a00000000000000000000000000000000000000000000000000000000081526004016114b090614fab565b60405180910390fd5b6001600860003373ffffffffffffffffffffffffffffffffffffffff1673ffffffffffffffffffffffffffffffffffffffff16815260200190815260200160002060008373ffffffffffffffffffffffffffffffffffffffff1673ffffffffffffffffffffffffffffffffffffffff16815260200190815260200160002060000160006101000a81548160ff021916908315150217905550600f600081548092919061156490614eab565b919050555050565b600660205280600052604060002060009150905080600001805461158f90614bcd565b80601f01602080910402602001604051908101604052809291908181526020018280546115bb90614bcd565b80156116085780601f106115dd57610100808354040283529160200191611608565b820191906000526020600020905b8154815290600101906020018083116115eb57829003601f168201915b50505050509080600101805461161d90614bcd565b80601f016020809104026020016040519081016040528092919081815260200182805461164990614bcd565b80156116965780601f1061166b57610100808354040283529160200191611696565b820191906000526020600020905b81548152906001019060200180831161167957829003601f168201915b5050505050908060020180546116ab90614bcd565b80601f01602080910402602001604051908101604052809291908181526020018280546116d790614bcd565b80156117245780601f106116f957610100808354040283529160200191611724565b820191906000526020600020905b81548152906001019060200180831161170757829003601f168201915b50505050509080600301805461173990614bcd565b80601f016020809104026020016040519081016040528092919081815260200182805461176590614bcd565b80156117b25780601f10611787576101008083540402835291602001916117b2565b820191906000526020600020905b81548152906001019060200180831161179557829003601f168201915b5050505050908060040180546117c790614bcd565b80601f01602080910402602001604051908101604052809291908181526020018280546117f390614bcd565b80156118405780601f1061181557610100808354040283529160200191611840565b820191906000526020600020905b81548152906001019060200180831161182357829003601f168201915b50505050509080600501805461185590614bcd565b80601f016020809104026020016040519081016040528092919081815260200182805461188190614bcd565b80156118ce5780601f106118a3576101008083540402835291602001916118ce565b820191906000526020600020905b8154815290600101906020018083116118b157829003601f168201915b5050505050908060060180546118e390614bcd565b80601f016020809104026020016040519081016040528092919081815260200182805461190f90614bcd565b801561195c5780601f106119315761010080835404028352916020019161195c565b820191906000526020600020905b81548152906001019060200180831161193f57829003601f168201915b5050505050908060070160009054906101000a900473ffffffffffffffffffffffffffffffffffffffff16908060080154905089565b6060806060806060806060600080600760008b73ffffffffffffffffffffffffffffffffffffffff1673ffffffffffffffffffffffffffffffffffffffff1681526020019081526020016000206008015403611a23576040517f08c379a0000000000000000000000000000000000000000000000000000000008152600401611a1a90615017565b60405180910390fd5b6000600760008b73ffffffffffffffffffffffffffffffffffffffff1673ffffffffffffffffffffffffffffffffffffffff168152602001908152602001600020604051806101200160405290816000820160009054906101000a900473ffffffffffffffffffffffffffffffffffffffff1673ffffffffffffffffffffffffffffffffffffffff1673ffffffffffffffffffffffffffffffffffffffff1681526020016001820160009054906101000a900473ffffffffffffffffffffffffffffffffffffffff1673ffffffffffffffffffffffffffffffffffffffff1673ffffffffffffffffffffffffffffffffffffffff168152602001600282018054611b2c90614bcd565b80601f0160208091040260200160405190810160405280929190818152602001828054611b5890614bcd565b8015611ba55780601f10611b7a57610100808354040283529160200191611ba5565b820191906000526020600020905b815481529060010190602001808311611b8857829003601f168201915b50505050508152602001600382018054611bbe90614bcd565b80601f0160208091040260200160405190810160405280929190818152602001828054611bea90614bcd565b8015611c375780601f10611c0c57610100808354040283529160200191611c37565b820191906000526020600020905b815481529060010190602001808311611c1a57829003601f168201915b50505050508152602001600482018054611c5090614bcd565b80601f0160208091040260200160405190810160405280929190818152602001828054611c7c90614bcd565b8015611cc95780601f10611c9e57610100808354040283529160200191611cc9565b820191906000526020600020905b815481529060010190602001808311611cac57829003601f168201915b50505050508152602001600582018054611ce290614bcd565b80601f0160208091040260200160405190810160405280929190818152602001828054611d0e90614bcd565b8015611d5b5780601f10611d3057610100808354040283529160200191611d5b565b820191906000526020600020905b815481529060010190602001808311611d3e57829003601f168201915b50505050508152602001600682018054611d7490614bcd565b80601f0160208091040260200160405190810160405280929190818152602001828054611da090614bcd565b8015611ded5780601f10611dc257610100808354040283529160200191611ded565b820191906000526020600020905b815481529060010190602001808311611dd057829003601f168201915b50505050508152602001600782018054611e0690614bcd565b80601f0160208091040260200160405190810160405280929190818152602001828054611e3290614bcd565b8015611e7f5780601f10611e5457610100808354040283529160200191611e7f565b820191906000526020600020905b815481529060010190602001808311611e6257829003601f168201915b50505050508152602001600882015481525050905060066000826000015173ffffffffffffffffffffffffffffffffffffffff1673ffffffffffffffffffffffffffffffffffffffff1681526020019081526020016000206001018160400151826060015183608001518460a001518560c001518660e00151876101000151878054611f0a90614bcd565b80601f0160208091040260200160405190810160405280929190818152602001828054611f3690614bcd565b8015611f835780601f10611f5857610100808354040283529160200191611f83565b820191906000526020600020905b815481529060010190602001808311611f6657829003601f168201915b505050505097509850985098509850985098509850985050919395975091939597565b60028181548110611fb657600080fd5b906000526020600020016000915054906101000a900473ffffffffffffffffffffffffffffffffffffffff1681565b600d5481565b6000600d54905090565b6060600380548060200260200160405190810160405280929190818152602001828054801561207957602002820191906000526020600020905b8160009054906101000a900473ffffffffffffffffffffffffffffffffffffffff1673ffffffffffffffffffffffffffffffffffffffff168152602001906001019080831161202f575b5050505050905090565b60076020528060005260406000206000915090508060000160009054906101000a900473ffffffffffffffffffffffffffffffffffffffff16908060010160009054906101000a900473ffffffffffffffffffffffffffffffffffffffff16908060020180546120f290614bcd565b80601f016020809104026020016040519081016040528092919081815260200182805461211e90614bcd565b801561216b5780601f106121405761010080835404028352916020019161216b565b820191906000526020600020905b81548152906001019060200180831161214e57829003601f168201915b50505050509080600301805461218090614bcd565b80601f01602080910402602001604051908101604052809291908181526020018280546121ac90614bcd565b80156121f95780601f106121ce576101008083540402835291602001916121f9565b820191906000526020600020905b8154815290600101906020018083116121dc57829003601f168201915b50505050509080600401805461220e90614bcd565b80601f016020809104026020016040519081016040528092919081815260200182805461223a90614bcd565b80156122875780601f1061225c57610100808354040283529160200191612287565b820191906000526020600020905b81548152906001019060200180831161226a57829003601f168201915b50505050509080600501805461229c90614bcd565b80601f01602080910402602001604051908101604052809291908181526020018280546122c890614bcd565b80156123155780601f106122ea57610100808354040283529160200191612315565b820191906000526020600020905b8154815290600101906020018083116122f857829003601f168201915b50505050509080600601805461232a90614bcd565b80601f016020809104026020016040519081016040528092919081815260200182805461235690614bcd565b80156123a35780601f10612378576101008083540402835291602001916123a3565b820191906000526020600020905b81548152906001019060200180831161238657829003601f168201915b5050505050908060070180546123b890614bcd565b80601f01602080910402602001604051908101604052809291908181526020018280546123e490614bcd565b80156124315780601f1061240657610100808354040283529160200191612431565b820191906000526020600020905b81548152906001019060200180831161241457829003601f168201915b5050505050908060080154905089565b60608060606000600560008673ffffffffffffffffffffffffffffffffffffffff1673ffffffffffffffffffffffffffffffffffffffff1681526020019081526020016000206040518060600160405290816000820180546124a290614bcd565b80601f01602080910402602001604051908101604052809291908181526020018280546124ce90614bcd565b801561251b5780601f106124f05761010080835404028352916020019161251b565b820191906000526020600020905b8154815290600101906020018083116124fe57829003601f168201915b5050505050815260200160018201805461253490614bcd565b80601f016020809104026020016040519081016040528092919081815260200182805461256090614bcd565b80156125ad5780601f10612582576101008083540402835291602001916125ad565b820191906000526020600020905b81548152906001019060200180831161259057829003601f168201915b505050505081526020016002820180546125c690614bcd565b80601f01602080910402602001604051908101604052809291908181526020018280546125f290614bcd565b801561263f5780601f106126145761010080835404028352916020019161263f565b820191906000526020600020905b81548152906001019060200180831161262257829003601f168201915b5050505050815250509050806000015181602001518260400151935093509350509193909250565b60008054906101000a900473ffffffffffffffffffffffffffffffffffffffff1681565b6001818154811061269b57600080fd5b906000526020600020016000915054906101000a900473ffffffffffffffffffffffffffffffffffffffff1681565b6000600e54905090565b600960003373ffffffffffffffffffffffffffffffffffffffff1673ffffffffffffffffffffffffffffffffffffffff16815260200190815260200160002060009054906101000a900460ff1615612761576040517f08c379a000000000000000000000000000000000000000000000000000000000815260040161275890615083565b60405180910390fd5b6000600460003373ffffffffffffffffffffffffffffffffffffffff1673ffffffffffffffffffffffffffffffffffffffff1681526020019081526020016000209050888160000190816127b59190614daa565b50878160010190816127c79190614daa565b50868160020190816127d99190614daa565b50858160030190816127eb9190614daa565b50848160040190816127fd9190614daa565b508381600501908161280f9190614daa565b50828160060190816128219190614daa565b50818160070190816128339190614daa565b50338160080160006101000a81548173ffffffffffffffffffffffffffffffffffffffff021916908373ffffffffffffffffffffffffffffffffffffffff1602179055504281600901819055506001339080600181540180825580915050600190039060005260206000200160009091909190916101000a81548173ffffffffffffffffffffffffffffffffffffffff021916908373ffffffffffffffffffffffffffffffffffffffff1602179055506001600960003373ffffffffffffffffffffffffffffffffffffffff1673ffffffffffffffffffffffffffffffffffffffff16815260200190815260200160002060006101000a81548160ff0219169083151502179055506001600860003373ffffffffffffffffffffffffffffffffffffffff1673ffffffffffffffffffffffffffffffffffffffff16815260200190815260200160002060003373ffffffffffffffffffffffffffffffffffffffff1673ffffffffffffffffffffffffffffffffffffffff16815260200190815260200160002060000160006101000a81548160ff021916908315150217905550600c60008154809291906129e690614eab565b9190505550505050505050505050565b600e5481565b600c5481565b6000600460003373ffffffffffffffffffffffffffffffffffffffff1673ffffffffffffffffffffffffffffffffffffffff1681526020019081526020016000206009015403612a87576040517f08c379a0000000000000000000000000000000000000000000000000000000008152600401612a7e90614f3f565b60405180910390fd5b6000600660008373ffffffffffffffffffffffffffffffffffffffff1673ffffffffffffffffffffffffffffffffffffffff1681526020019081526020016000206008015403612b0c576040517f08c379a0000000000000000000000000000000000000000000000000000000008152600401612b0390614fab565b60405180910390fd5b6000600860003373ffffffffffffffffffffffffffffffffffffffff1673ffffffffffffffffffffffffffffffffffffffff16815260200190815260200160002060008373ffffffffffffffffffffffffffffffffffffffff1673ffffffffffffffffffffffffffffffffffffffff16815260200190815260200160002060000160006101000a81548160ff021916908315150217905550600f6000815480929190612bb7906150a3565b919050555050565b600a60003373ffffffffffffffffffffffffffffffffffffffff1673ffffffffffffffffffffffffffffffffffffffff16815260200190815260200160002060009054906101000a900460ff16612c1557600080fd5b6000600660003373ffffffffffffffffffffffffffffffffffffffff1673ffffffffffffffffffffffffffffffffffffffff168152602001908152602001600020905087816000019081612c699190614daa565b5086816001019081612c7b9190614daa565b5085816002019081612c8d9190614daa565b5084816003019081612c9f9190614daa565b5083816004019081612cb19190614daa565b5082816005019081612cc39190614daa565b5081816006019081612cd59190614daa565b50338160070160006101000a81548173ffffffffffffffffffffffffffffffffffffffff021916908373ffffffffffffffffffffffffffffffffffffffff1602179055505050505050505050565b606080606080606080600080600660008a73ffffffffffffffffffffffffffffffffffffffff1673ffffffffffffffffffffffffffffffffffffffff1681526020019081526020016000206008015403612db2576040517f08c379a0000000000000000000000000000000000000000000000000000000008152600401612da990614fab565b60405180910390fd5b6000600660008a73ffffffffffffffffffffffffffffffffffffffff1673ffffffffffffffffffffffffffffffffffffffff16815260200190815260200160002060405180610120016040529081600082018054612e0f90614bcd565b80601f0160208091040260200160405190810160405280929190818152602001828054612e3b90614bcd565b8015612e885780601f10612e5d57610100808354040283529160200191612e88565b820191906000526020600020905b815481529060010190602001808311612e6b57829003601f168201915b50505050508152602001600182018054612ea190614bcd565b80601f0160208091040260200160405190810160405280929190818152602001828054612ecd90614bcd565b8015612f1a5780601f10612eef57610100808354040283529160200191612f1a565b820191906000526020600020905b815481529060010190602001808311612efd57829003601f168201915b50505050508152602001600282018054612f3390614bcd565b80601f0160208091040260200160405190810160405280929190818152602001828054612f5f90614bcd565b8015612fac5780601f10612f8157610100808354040283529160200191612fac565b820191906000526020600020905b815481529060010190602001808311612f8f57829003601f168201915b50505050508152602001600382018054612fc590614bcd565b80601f0160208091040260200160405190810160405280929190818152602001828054612ff190614bcd565b801561303e5780601f106130135761010080835404028352916020019161303e565b820191906000526020600020905b81548152906001019060200180831161302157829003601f168201915b5050505050815260200160048201805461305790614bcd565b80601f016020809104026020016040519081016040528092919081815260200182805461308390614bcd565b80156130d05780601f106130a5576101008083540402835291602001916130d0565b820191906000526020600020905b8154815290600101906020018083116130b357829003601f168201915b505050505081526020016005820180546130e990614bcd565b80601f016020809104026020016040519081016040528092919081815260200182805461311590614bcd565b80156131625780601f1061313757610100808354040283529160200191613162565b820191906000526020600020905b81548152906001019060200180831161314557829003601f168201915b5050505050815260200160068201805461317b90614bcd565b80601f01602080910402602001604051908101604052809291908181526020018280546131a790614bcd565b80156131f45780601f106131c9576101008083540402835291602001916131f4565b820191906000526020600020905b8154815290600101906020018083116131d757829003601f168201915b505050505081526020016007820160009054906101000a900473ffffffffffffffffffffffffffffffffffffffff1673ffffffffffffffffffffffffffffffffffffffff1673ffffffffffffffffffffffffffffffffffffffff1681526020016008820154815250509050806000015181602001518260400151836060015184608001518560a00151866101000151975097509750975097509750975050919395979092949650565b600f5481565b6000600c54905090565b60056020528060005260406000206000915090508060000180546132d090614bcd565b80601f01602080910402602001604051908101604052809291908181526020018280546132fc90614bcd565b80156133495780601f1061331e57610100808354040283529160200191613349565b820191906000526020600020905b81548152906001019060200180831161332c57829003601f168201915b50505050509080600101805461335e90614bcd565b80601f016020809104026020016040519081016040528092919081815260200182805461338a90614bcd565b80156133d75780601f106133ac576101008083540402835291602001916133d7565b820191906000526020600020905b8154815290600101906020018083116133ba57829003601f168201915b5050505050908060020180546133ec90614bcd565b80601f016020809104026020016040519081016040528092919081815260200182805461341890614bcd565b80156134655780601f1061343a57610100808354040283529160200191613465565b820191906000526020600020905b81548152906001019060200180831161344857829003601f168201915b5050505050905083565b600960003373ffffffffffffffffffffffffffffffffffffffff1673ffffffffffffffffffffffffffffffffffffffff16815260200190815260200160002060009054906101000a900460ff166134c557600080fd5b6000600460003373ffffffffffffffffffffffffffffffffffffffff1673ffffffffffffffffffffffffffffffffffffffff1681526020019081526020016000209050888160000190816135199190614daa565b508781600101908161352b9190614daa565b508681600201908161353d9190614daa565b508581600301908161354f9190614daa565b50848160040190816135619190614daa565b50838160050190816135739190614daa565b50828160060190816135859190614daa565b50818160070190816135979190614daa565b50338160080160006101000a81548173ffffffffffffffffffffffffffffffffffffffff021916908373ffffffffffffffffffffffffffffffffffffffff160217905550505050505050505050565b600960003373ffffffffffffffffffffffffffffffffffffffff1673ffffffffffffffffffffffffffffffffffffffff16815260200190815260200160002060009054906101000a900460ff16613672576040517f08c379a000000000000000000000000000000000000000000000000000000000815260040161366990615118565b60405180910390fd5b6000600560003373ffffffffffffffffffffffffffffffffffffffff1673ffffffffffffffffffffffffffffffffffffffff1681526020019081526020016000209050838160000190816136c69190614daa565b50828160010190816136d89190614daa565b50818160020190816136ea9190614daa565b5050505050565b606080606080606080606080600080600460008c73ffffffffffffffffffffffffffffffffffffffff1673ffffffffffffffffffffffffffffffffffffffff1681526020019081526020016000206009015403613783576040517f08c379a000000000000000000000000000000000000000000000000000000000815260040161377a90614f3f565b60405180910390fd5b6000600460008c73ffffffffffffffffffffffffffffffffffffffff1673ffffffffffffffffffffffffffffffffffffffff168152602001908152602001600020604051806101400160405290816000820180546137e090614bcd565b80601f016020809104026020016040519081016040528092919081815260200182805461380c90614bcd565b80156138595780601f1061382e57610100808354040283529160200191613859565b820191906000526020600020905b81548152906001019060200180831161383c57829003601f168201915b5050505050815260200160018201805461387290614bcd565b80601f016020809104026020016040519081016040528092919081815260200182805461389e90614bcd565b80156138eb5780601f106138c0576101008083540402835291602001916138eb565b820191906000526020600020905b8154815290600101906020018083116138ce57829003601f168201915b5050505050815260200160028201805461390490614bcd565b80601f016020809104026020016040519081016040528092919081815260200182805461393090614bcd565b801561397d5780601f106139525761010080835404028352916020019161397d565b820191906000526020600020905b81548152906001019060200180831161396057829003601f168201915b5050505050815260200160038201805461399690614bcd565b80601f01602080910402602001604051908101604052809291908181526020018280546139c290614bcd565b8015613a0f5780601f106139e457610100808354040283529160200191613a0f565b820191906000526020600020905b8154815290600101906020018083116139f257829003601f168201915b50505050508152602001600482018054613a2890614bcd565b80601f0160208091040260200160405190810160405280929190818152602001828054613a5490614bcd565b8015613aa15780601f10613a7657610100808354040283529160200191613aa1565b820191906000526020600020905b815481529060010190602001808311613a8457829003601f168201915b50505050508152602001600582018054613aba90614bcd565b80601f0160208091040260200160405190810160405280929190818152602001828054613ae690614bcd565b8015613b335780601f10613b0857610100808354040283529160200191613b33565b820191906000526020600020905b815481529060010190602001808311613b1657829003601f168201915b50505050508152602001600682018054613b4c90614bcd565b80601f0160208091040260200160405190810160405280929190818152602001828054613b7890614bcd565b8015613bc55780601f10613b9a57610100808354040283529160200191613bc5565b820191906000526020600020905b815481529060010190602001808311613ba857829003601f168201915b50505050508152602001600782018054613bde90614bcd565b80601f0160208091040260200160405190810160405280929190818152602001828054613c0a90614bcd565b8015613c575780601f10613c2c57610100808354040283529160200191613c57565b820191906000526020600020905b815481529060010190602001808311613c3a57829003601f168201915b505050505081526020016008820160009054906101000a900473ffffffffffffffffffffffffffffffffffffffff1673ffffffffffffffffffffffffffffffffffffffff1673ffffffffffffffffffffffffffffffffffffffff1681526020016009820154815250509050806000015181602001518260400151836060015184608001518560a001518660c001518760e00151886101200151995099509950995099509950995099509950509193959799909294969850565b60606002805480602002602001604051908101604052809291908181526020018280548015613d9457602002820191906000526020600020905b8160009054906101000a900473ffffffffffffffffffffffffffffffffffffffff1673ffffffffffffffffffffffffffffffffffffffff1681526020019060010190808311613d4a575b5050505050905090565b6000604051905090565b600080fd5b600080fd5b600073ffffffffffffffffffffffffffffffffffffffff82169050919050565b6000613ddd82613db2565b9050919050565b613ded81613dd2565b8114613df857600080fd5b50565b600081359050613e0a81613de4565b92915050565b600080fd5b600080fd5b6000601f19601f8301169050919050565b7f4e487b7100000000000000000000000000000000000000000000000000000000600052604160045260246000fd5b613e6382613e1a565b810181811067ffffffffffffffff82111715613e8257613e81613e2b565b5b80604052505050565b6000613e95613d9e565b9050613ea18282613e5a565b919050565b600067ffffffffffffffff821115613ec157613ec0613e2b565b5b613eca82613e1a565b9050602081019050919050565b82818337600083830152505050565b6000613ef9613ef484613ea6565b613e8b565b905082815260208101848484011115613f1557613f14613e15565b5b613f20848285613ed7565b509392505050565b600082601f830112613f3d57613f3c613e10565b5b8135613f4d848260208601613ee6565b91505092915050565b600080600080600080600060e0888a031215613f7557613f74613da8565b5b6000613f838a828b01613dfb565b975050602088013567ffffffffffffffff811115613fa457613fa3613dad565b5b613fb08a828b01613f28565b965050604088013567ffffffffffffffff811115613fd157613fd0613dad565b5b613fdd8a828b01613f28565b955050606088013567ffffffffffffffff811115613ffe57613ffd613dad565b5b61400a8a828b01613f28565b945050608088013567ffffffffffffffff81111561402b5761402a613dad565b5b6140378a828b01613f28565b93505060a088013567ffffffffffffffff81111561405857614057613dad565b5b6140648a828b01613f28565b92505060c088013567ffffffffffffffff81111561408557614084613dad565b5b6140918a828b01613f28565b91505092959891949750929550565b6000602082840312156140b6576140b5613da8565b5b60006140c484828501613dfb565b91505092915050565b600081519050919050565b600082825260208201905092915050565b60005b838110156141075780820151818401526020810190506140ec565b60008484015250505050565b600061411e826140cd565b61412881856140d8565b93506141388185602086016140e9565b61414181613e1a565b840191505092915050565b61415581613dd2565b82525050565b6000819050919050565b61416e8161415b565b82525050565b600061014082019050818103600083015261418f818d614113565b905081810360208301526141a3818c614113565b905081810360408301526141b7818b614113565b905081810360608301526141cb818a614113565b905081810360808301526141df8189614113565b905081810360a08301526141f38188614113565b905081810360c08301526142078187614113565b905081810360e083015261421b8186614113565b905061422b61010083018561414c565b614239610120830184614165565b9b9a5050505050505050505050565b6142518161415b565b811461425c57600080fd5b50565b60008135905061426e81614248565b92915050565b60006020828403121561428a57614289613da8565b5b60006142988482850161425f565b91505092915050565b60006020820190506142b6600083018461414c565b92915050565b600080604083850312156142d3576142d2613da8565b5b60006142e185828601613dfb565b92505060206142f285828601613dfb565b9150509250929050565b60008115159050919050565b614311816142fc565b82525050565b600060208201905061432c6000830184614308565b92915050565b600081519050919050565b600082825260208201905092915050565b6000819050602082019050919050565b61436781613dd2565b82525050565b6000614379838361435e565b60208301905092915050565b6000602082019050919050565b600061439d82614332565b6143a7818561433d565b93506143b28361434e565b8060005b838110156143e35781516143ca888261436d565b97506143d583614385565b9250506001810190506143b6565b5085935050505092915050565b6000602082019050818103600083015261440a8184614392565b905092915050565b600080600080600080600060e0888a03121561443157614430613da8565b5b600088013567ffffffffffffffff81111561444f5761444e613dad565b5b61445b8a828b01613f28565b975050602088013567ffffffffffffffff81111561447c5761447b613dad565b5b6144888a828b01613f28565b965050604088013567ffffffffffffffff8111156144a9576144a8613dad565b5b6144b58a828b01613f28565b955050606088013567ffffffffffffffff8111156144d6576144d5613dad565b5b6144e28a828b01613f28565b945050608088013567ffffffffffffffff81111561450357614502613dad565b5b61450f8a828b01613f28565b93505060a088013567ffffffffffffffff8111156145305761452f613dad565b5b61453c8a828b01613f28565b92505060c088013567ffffffffffffffff81111561455d5761455c613dad565b5b6145698a828b01613f28565b91505092959891949750929550565b600060208201905061458d6000830184614165565b92915050565b60006101208201905081810360008301526145ae818c614113565b905081810360208301526145c2818b614113565b905081810360408301526145d6818a614113565b905081810360608301526145ea8189614113565b905081810360808301526145fe8188614113565b905081810360a08301526146128187614113565b905081810360c08301526146268186614113565b905061463560e083018561414c565b614643610100830184614165565b9a9950505050505050505050565b600061010082019050818103600083015261466c818b614113565b90508181036020830152614680818a614113565b905081810360408301526146948189614113565b905081810360608301526146a88188614113565b905081810360808301526146bc8187614113565b905081810360a08301526146d08186614113565b905081810360c08301526146e48185614113565b90506146f360e0830184614165565b9998505050505050505050565b600061012082019050614716600083018c61414c565b614723602083018b61414c565b8181036040830152614735818a614113565b905081810360608301526147498189614113565b9050818103608083015261475d8188614113565b905081810360a08301526147718187614113565b905081810360c08301526147858186614113565b905081810360e08301526147998185614113565b90506147a9610100830184614165565b9a9950505050505050505050565b600060608201905081810360008301526147d18186614113565b905081810360208301526147e58185614113565b905081810360408301526147f98184614113565b9050949350505050565b600080600080600080600080610100898b03121561482457614823613da8565b5b600089013567ffffffffffffffff81111561484257614841613dad565b5b61484e8b828c01613f28565b985050602089013567ffffffffffffffff81111561486f5761486e613dad565b5b61487b8b828c01613f28565b975050604089013567ffffffffffffffff81111561489c5761489b613dad565b5b6148a88b828c01613f28565b965050606089013567ffffffffffffffff8111156148c9576148c8613dad565b5b6148d58b828c01613f28565b955050608089013567ffffffffffffffff8111156148f6576148f5613dad565b5b6149028b828c01613f28565b94505060a089013567ffffffffffffffff81111561492357614922613dad565b5b61492f8b828c01613f28565b93505060c089013567ffffffffffffffff8111156149505761494f613dad565b5b61495c8b828c01613f28565b92505060e089013567ffffffffffffffff81111561497d5761497c613dad565b5b6149898b828c01613f28565b9150509295985092959890939650565b600060e08201905081810360008301526149b3818a614113565b905081810360208301526149c78189614113565b905081810360408301526149db8188614113565b905081810360608301526149ef8187614113565b90508181036080830152614a038186614113565b905081810360a0830152614a178185614113565b9050614a2660c0830184614165565b98975050505050505050565b600080600060608486031215614a4b57614a4a613da8565b5b600084013567ffffffffffffffff811115614a6957614a68613dad565b5b614a7586828701613f28565b935050602084013567ffffffffffffffff811115614a9657614a95613dad565b5b614aa286828701613f28565b925050604084013567ffffffffffffffff811115614ac357614ac2613dad565b5b614acf86828701613f28565b9150509250925092565b6000610120820190508181036000830152614af4818c614113565b90508181036020830152614b08818b614113565b90508181036040830152614b1c818a614113565b90508181036060830152614b308189614113565b90508181036080830152614b448188614113565b905081810360a0830152614b588187614113565b905081810360c0830152614b6c8186614113565b905081810360e0830152614b808185614113565b9050614b90610100830184614165565b9a9950505050505050505050565b7f4e487b7100000000000000000000000000000000000000000000000000000000600052602260045260246000fd5b60006002820490506001821680614be557607f821691505b602082108103614bf857614bf7614b9e565b5b50919050565b60008190508160005260206000209050919050565b60006020601f8301049050919050565b600082821b905092915050565b600060088302614c607fffffffffffffffffffffffffffffffffffffffffffffffffffffffffffffffff82614c23565b614c6a8683614c23565b95508019841693508086168417925050509392505050565b6000819050919050565b6000614ca7614ca2614c9d8461415b565b614c82565b61415b565b9050919050565b6000819050919050565b614cc183614c8c565b614cd5614ccd82614cae565b848454614c30565b825550505050565b600090565b614cea614cdd565b614cf5818484614cb8565b505050565b5b81811015614d1957614d0e600082614ce2565b600181019050614cfb565b5050565b601f821115614d5e57614d2f81614bfe565b614d3884614c13565b81016020851015614d47578190505b614d5b614d5385614c13565b830182614cfa565b50505b505050565b600082821c905092915050565b6000614d8160001984600802614d63565b1980831691505092915050565b6000614d9a8383614d70565b9150826002028217905092915050565b614db3826140cd565b67ffffffffffffffff811115614dcc57614dcb613e2b565b5b614dd68254614bcd565b614de1828285614d1d565b600060209050601f831160018114614e145760008415614e02578287015190505b614e0c8582614d8e565b865550614e74565b601f198416614e2286614bfe565b60005b82811015614e4a57848901518255600182019150602085019450602081019050614e25565b86831015614e675784890151614e63601f891682614d70565b8355505b6001600288020188555050505b505050505050565b7f4e487b7100000000000000000000000000000000000000000000000000000000600052601160045260246000fd5b6000614eb68261415b565b91507fffffffffffffffffffffffffffffffffffffffffffffffffffffffffffffffff8203614ee857614ee7614e7c565b5b600182019050919050565b7f50617469656e742064657461696c73206e6f7420666f756e642e000000000000600082015250565b6000614f29601a836140d8565b9150614f3482614ef3565b602082019050919050565b60006020820190508181036000830152614f5881614f1c565b9050919050565b7f446f63746f722064657461696c73206e6f7420666f756e642e00000000000000600082015250565b6000614f956019836140d8565b9150614fa082614f5f565b602082019050919050565b60006020820190508181036000830152614fc481614f88565b9050919050565b7f4170706f696e746d656e742064657461696c73206e6f7420666f756e642e0000600082015250565b6000615001601e836140d8565b915061500c82614fcb565b602082019050919050565b6000602082019050818103600083015261503081614ff4565b9050919050565b7f50617469656e742064657461696c7320616c7265616479206578697374730000600082015250565b600061506d601e836140d8565b915061507882615037565b602082019050919050565b6000602082019050818103600083015261509c81615060565b9050919050565b60006150ae8261415b565b9150600082036150c1576150c0614e7c565b5b600182039050919050565b7f50617469656e742064657461696c73206e6f7420666f756e6400000000000000600082015250565b60006151026019836140d8565b915061510d826150cc565b602082019050919050565b60006020820190508181036000830152615131816150f5565b905091905056fea264697066735822122098b0399bdc16ee39e749ee1a7e155d058db57aa88e60166b8324c8825185ff8264736f6c63430008120033",
  "linkReferences": {},
  "deployedLinkReferences": {}
}